:020000040800F2
:100000000050002085070008BD060008C306000850
:10001000C9060008CF060008D50600080000000049
:10002000000000000000000000000000DB060008E7
:10003000E706000800000000F3060008FF060008BD
:10004000CD070008CD070008CD070008CD07000840
:10005000CD070008CD070008CD070008CD07000830
:10006000CD070008CD070008CD070008CD07000820
:10007000CD070008CD070008CD070008CD07000810
:10008000CD070008CD070008CD070008CD07000800
:10009000CD070008CD070008CD070008CD070008F0
:1000A000CD070008CD070008CD070008CD070008E0
:1000B000CD070008CD070008CD070008CD070008D0
:1000C000CD070008CD070008CD070008CD070008C0
:1000D000CD070008CD070008CD070008CD070008B0
:1000E000CD070008CD070008CD070008000000007C
:1000F0000000000000000000000000000000000000
:0C01000000000000000000005FF808F1A3
:10010C0010B5054C237833B9044B13B10448AFF345
:10011C0000800123237010BD70000020000000003F
:10012C009425000808B5034B1BB103490348AFF3F2
:10013C00008008BD00000000740000209425000819
:10014C00034613F8012B002AFBD1181A013870470B
:10015C00B0B5ACB002AF07F16C03202200211846F9
:10016C0001F090FD042387F86C30042387F86D3080
:10017C00CF4B7B670C2387F87830CD4BFB67032381
:10018C0087F8803007F14C0320220021184601F03B
:10019C0079FDC84B3B65C74BBB652023A7F85C308A
:1001AC00C44B3B661023A7F86430C34B9B69C24A0F
:1001BC0043F008039361C04B9B6903F008033B6059
:1001CC003B6807F16C03184600F0E9FD07F14C039E
:1001DC0010220221184600F00FFC002387F8933000
:1001EC00002387F89230002387F89130002387F89A
:1001FC009030B24B07F13C040FCB07C42380023480
:10020C001B0C2370AE4B07F128041D460FCD0FC4F9
:10021C002B682370AB4B07F114041D460FCD0FC494
:10022C002B68237007F13C031846FFF789FF034640
:10023C0087F88F3007F128031846FFF781FF034634
:10024C0087F88E3007F114031846FFF779FF034641
:10025C0087F88D3007F16C03184600F0AFFD07F1FD
:10026C006C030C21184600F0DEFD0346002B22D156
:10027C0007F16C030D21184600F0D5FD0346002B49
:10028C0019D107F16C030E21184600F0CCFD034682
:10029C00002B10D107F13C0207F14C0097F88F307E
:1002AC00009313460022002100F061FC4FF4FA7019
:1002BC0000F032FE50E107F16C030C21184600F0FF
:1002CC00B2FD0346002BC5D007F14C03184600F0D5
:1002DC0067FC07F1280207F14C0097F88E30009369
:1002EC0013460022012100F042FC97F8931097F876
:1002FC00924097F8913097F89020381D0192009316
:10030C0023460A46704901F0C5FC034687F8A7301E
:10031C000023C7F8A0301AE10023C7F89C300CE189
:10032C000023C7F89830FEE00023C7F89430F0E0C3
:10033C00381DD7F894300193D7F898300093D7F83C
:10034C009C30D7F8A020604901F0A4FC034687F844
:10035C00A7303A1D07F14C0097F8A73000931346CD
:10036C000022002100F003FC07F16C03184600F09A
:10037C0025FD07F16C030E21184600F054FD0346D1
:10038C00002B4ED00023C7F8A0300023C7F89C30B8
:10039C000023C7F898300023C7F89430381DD7F8DD
:1003AC0094300193D7F898300093D7F89C30D7F855
:1003BC00A020454901F06EFC034687F8A7303A1D92
:1003CC0007F14C0097F8A730009313460022002148
:1003DC0000F0CDFB07F13C0207F14C0097F88F3091
:1003EC00009313460022012100F0C1FB04E007F149
:1003FC006C03184600F0E2FC07F16C030C21184664
:10040C0000F011FD0346002BF1D007F1280207F193
:10041C004C0097F88E30009313460022012100F017
:10042C00A6FB07F16C030D21184600F0FCFC0346FB
:10043C00002B69D007F16C03184600F0BFFC07F1E4
:10044C004C03184600F0ACFB3A1D07F14C0097F832
:10045C00A730009313460022002100F088FB07F11F
:10046C00140207F14C0097F88D30009313460022CC
:10047C00012100F07CFB35E007F16C03184600F01D
:10048C009DFC07F16C030C21184600F0CCFC0346D4
:10049C00002B1BD007F1280207F14C0097F88E3087
:1004AC00009313460022012100F061FB1AE000BF0B
:1004BC00000C01400008014000100240C02500085B
:1004CC00D0250008E4250008AC25000807F13C0203
:1004DC0007F14C0097F88F3000931346002201214E
:1004EC0000F045FB07F16C030C21184600F09BFC57
:1004FC000346002B08D107F16C030E21184600F0BF
:10050C0092FC0346002BB7D0D7F894300133C7F8D0
:10051C009430D7F89430632B7FF70AAFD7F8983024
:10052C000133C7F89830D7F898303B2B7FF7FCAEE7
:10053C00D7F89C300133C7F89C30D7F89C303B2B54
:10054C007FF7EEAED7F8A0300133C7F8A030D7F85C
:10055C00A030172B7FF7E0AE7CE600BF80B500AF74
:10056C0000F078FC00F005F800F048F8FFF7F0FD1B
:10057C00FEE780B590B000AF07F1180328220021E8
:10058C00184601F07FFB3B1D00221A605A609A60EE
:10059C00DA601A610123BB614FF48033FB610023E5
:1005AC003B620123BB6202237B634FF48033BB634A
:1005BC004FF4E013FB6307F11803184600F050FFEB
:1005CC000346002B01D000F03BF80F237B60022385
:1005DC00BB600023FB604FF480633B6100237B61B5
:1005EC003B1D0221184601F0BDF90346002B01D03A
:1005FC0000F026F800BF4037BD4680BD80B483B004
:10060C0000AF0E4B9B690D4A43F0200393610B4BDB
:10061C009B6903F020037B607B68084B9B69074A4E
:10062C0043F004039361054B9B6903F004033B60A7
:10063C003B6800BF0C37BD4680BC704700100240C1
:10064C0080B400AF72B600BFFEE7000080B485B086
:10065C0000AF154B9B69144A43F001039361124B95
:10066C009B6903F00103BB60BB680F4BDB690E4A4F
:10067C0043F08053D3610C4BDB6903F080537B60F8
:10068C007B680A4B5B68FB60FB6823F0E063FB60F4
:10069C00FB6843F00073FB60044AFB68536000BFC7
:1006AC001437BD4680BC704700100240000001406A
:1006BC0080B400AFFEE780B400AFFEE780B400AFBB
:1006CC00FEE780B400AFFEE780B400AFFEE780B475
:1006DC0000AF00BFBD4680BC704780B400AF00BF08
:1006EC00BD4680BC704780B400AF00BFBD4680BC27
:1006FC00704780B500AF00F0F3FB00BF80BD000079
:10070C0080B586B000AF7860144A154BD31A7B6164
:10071C007B693B61134B1B68002B02D1114B124AB6
:10072C001A60104B1A687B6813443A699A4207D2D4
:10073C0001F07EFA03460C221A604FF0FF3309E0F9
:10074C00084B1B68FB60074B1A687B681344054A0F
:10075C001360FB6818461837BD4680BD005000205A
:10076C00000400008C000020A800002080B400AF22
:10077C0000BFBD4680BC7047FFF7F8FF0B480C4923
:10078C000C4A002302E0D458C4500433C4188C42E1
:10079C00F9D3094A094C002301E013600432A24248
:1007AC00FBD301F04BFAFFF7D9FE70470000002095
:1007BC00700000205826000870000020A4000020C3
:1007CC00FEE7000080B400AF144BDB68134A23F043
:1007DC008073D360114BDB68104A43F08073D36095
:1007EC000F4B1B680E4A23F0010313600C4B1B6864
:1007FC000B4A43F001031360094B00225A6000BFFF
:10080C0000BF00BF064B5B68002B01D0002300E04B
:10081C0001231846BD4680BC704700BFF0ED00E0D8
:10082C00001000E080B584B000AF78600D4B5B68C1
:10083C00FB6001F0D5F903460B4AA2FB03239B0C8A
:10084C007A6802FB03F37B6000BF064B5A68FB68B7
:10085C00D21A7B689A42F8D300BF00BF1037BD464E
:10086C0080BD00BF001000E083DE1B4380B582B06A
:10087C0000AF0346FB80FB881846FFF7D3FF00BF91
:10088C000837BD4680BD80B483B000AF78600B469E
:10089C00FB707B685B68DA687B681B7A19460F23F0
:1008AC008B40DB4319467B685B680A40DA607B68E7
:1008BC005B68DA68FB787968097A8B4019467B6843
:1008CC005B680A43DA6000BF0C37BD4680BC7047DA
:1008DC0080B582B000AF78600B46FB707B685869BE
:1008EC007B681B8BFA78194600F0A2FD00BF083715
:1008FC00BD4680BD80B582B000AF78600B46FB7002
:10090C007B68D8687B681B8AFA78194600F090FDE2
:10091C0000BF0837BD4680BD80B586B000AF78609B
:10092C0007F1080300221A605A609A60DA607B684B
:10093C001B8BBB600123FB6002237B617B685B69C3
:10094C0007F108021146184600F0EEFB7B681B8A83
:10095C00BB607B68DB6807F108021146184600F0A3
:10096C00E3FB7B681B7A1A460F239340BB607B68C2
:10097C005B6807F108021146184600F0D5FB00BF72
:10098C001837BD4680BD80B582B000AF78600B468D
:10099C00FB701346BB70FB7819467868FFF798FF1D
:1009AC00BB781B09DBB219467868FFF76CFF012195
:1009BC007868FFF79FFF0A20FFF758FF002178683F
:1009CC00FFF798FF6420FFF751FFBB781946786852
:1009DC00FFF759FF01217868FFF78CFF0A20FFF71A
:1009EC0045FF00217868FFF785FF6420FFF73EFF85
:1009FC0000BF0837BD4680BD80B584B000AF7860BD
:100A0C000B46FB701346BB70FFF7DCFE7868FFF7F4
:100A1C0083FF7B6800229A767B684022DA767B68BB
:100A2C00BA781A77BB784033DAB27B685A770021F0
:100A3C007868FFF74DFF00217868FFF75BFF4CF2F9
:100A4C005030FFF713FF0023FB7318E00321786885
:100A5C00FFF719FF01217868FFF74CFF0A20FFF719
:100A6C0005FF00217868FFF745FF6420FFF7FEFEC5
:100A7C0041F29410FFF7FAFEFB7B0133FB73FB7B17
:100A8C00012BE3D903217868FFF7FDFE012178687B
:100A9C00FFF730FF0A20FFF7E9FE00217868FFF727
:100AAC0029FF6420FFF7E2FE9620FFF7DFFE02210C
:100ABC007868FFF7E8FE01217868FFF71BFF0A2032
:100ACC00FFF7D4FE00217868FFF714FF6420FFF7CE
:100ADC00CDFE282200217868FFF755FF0023002265
:100AEC000121786800F06DF8786800F059F800BFC3
:100AFC001037BD4680BD80B582B000AF78600B4624
:100B0C00FB701346BB70FB787A6813449A7EBB78F3
:100B1C001344DBB25BB263F07F035BB2DBB21A4609
:100B2C0000217868FFF72FFF00BF0837BD4680BD56
:100B3C0080B586B000AFF860B9601346FB71002336
:100B4C00FB750BE0BB685A1CBA601B781A46012176
:100B5C00F868FFF718FFFB7D0133FB75FA7DFB7915
:100B6C009A42EFD300BF00BF1837BD4680BD80B599
:100B7C0084B000AFF8607B600B46FB721346BB720F
:100B8C00BA7AFB7A1946F868FFF7B5FF3B7E1A462E
:100B9C007968F868FFF7CCFF00BF1037BD4680BD01
:100BAC0080B582B000AF7860012200217868FFF731
:100BBC00EAFE4FF4FA60FFF759FE00BF0837BD4656
:100BCC0080BD80B582B000AF7860084611461A46E9
:100BDC000346FB700B46BB7013467B707B68002290
:100BEC009A77FB78002B06D07B689B7F43F004033D
:100BFC00DAB27B689A77BB78002B06D07B689B7F38
:100C0C0043F00203DAB27B689A777B78002B06D02C
:100C1C007B689B7F43F00103DAB27B689A777B6831
:100C2C009B7F43F00403DAB27B689A777B689B7FE7
:100C3C0043F00803DBB21A4600217868FFF7A3FEE5
:100C4C0000BF0837BD4680BD80B58AB000AF786064
:100C5C0007F10C0300221A605A609A60DA600123D3
:100C6C003B610223BB6100237B6200233B620EE0ED
:100C7C007B681B7B1A463B6A1344012202FA03F37E
:100C8C001A467B6A13437B623B6A01333B627B6887
:100C9C001B781A463B6A9342EADB7B687A6ADA6114
:100CAC007B6AFB607B689B6807F10C021146184657
:100CBC0000F03AFA00233B6102237B6100237B6244
:100CCC000023FB610EE07B681B7D1A46FB69134415
:100CDC00012202FA03F31A467B6A13437B62FB6917
:100CEC000133FB617B685B781A46FB699342EADB54
:100CFC007B6AFB607B687A6A9A617B681B6907F187
:100D0C000C021146184600F00FFA00BF2837BD46FA
:100D1C0080BD80B582B000AF0346FB80FB881846CF
:100D2C0000F0FAF800BF0837BD4680BD80B485B02E
:100D3C0000AF78607B681B699A687B689B6913407D
:100D4C00FB607B681B7D1A46FB68D340FB60FB682D
:100D5C00DBB218461437BD4680BC704780B483B0F4
:100D6C0000AF78600B46FB707B689B68D9687B682A
:100D7C00DB69DA437B689B680A40DA607B689B68B6
:100D8C00D968FB787A68127B03FA02F27B689B685D
:100D9C000A43DA6000BF0C37BD4680BC704780B593
:100DAC0082B000AF78607868FFF74EFF002178685A
:100DBC00FFF7D4FF00BF0837BD4680BD80B584B0B7
:100DCC0000AF78607B6800225A600123FB7300231C
:100DDC00BB731EE0FB7B19467868FFF7BFFF012051
:100DEC00FFF797FF7868FFF7A1FF03461946BB7B17
:100DFC007A68527802FB03F301FA03F27B685B68B2
:100E0C001A437B685A60FB7B5B00FB73BB7B013333
:100E1C00BB737B681B78BA7B9A42DBD300BF00BFE5
:100E2C001037BD4680BD80B483B000AF78600B46F0
:100E3C00FB707B685B68FA78012101FA02F21340BF
:100E4C00002B01D0012300E0002318460C37BD46CF
:100E5C0080BC704780B500AF084B1B68074A43F055
:100E6C0010031360032000F02BF90F2000F008F89A
:100E7C00FFF7ECFB0023184680BD00BF00200240AA
:100E8C0080B582B000AF7860124B1A68124B1B7899
:100E9C0019464FF47A73B3FBF1F3B2FBF3F3184634
:100EAC0000F035F90346002B01D001230EE07B68DE
:100EBC000F2B0AD8002279684FF0FF3000F00BF9A5
:100ECC00064A7B681360002300E0012318460837AC
:100EDC00BD4680BD0000002008000020040000205A
:100EEC0080B400AF054B1B781A46054B1B681344A6
:100EFC00034A136000BFBD4680BC70470800002049
:100F0C009000002080B400AF024B1B681846BD4611
:100F1C0080BC70479000002080B584B000AF786032
:100F2C00FFF7F0FFB8607B68FB60FB68B3F1FF3F35
:100F3C0005D00A4B1B781A46FB681344FB6000BFB4
:100F4C00FFF7E0FF0246BB68D31AFA689A42F7D85B
:100F5C0000BF00BF1037BD4680BD00BF0800002099
:100F6C0080B485B000AF78607B6803F00703FB604A
:100F7C000C4BDB68BB60BA684FF6FF031340BB60D9
:100F8C00FB681A02BB68134343F0BF6343F400339E
:100F9C00BB60044ABB68D36000BF1437BD4680BC3D
:100FAC00704700BF00ED00E080B400AF044BDB687D
:100FBC001B0A03F007031846BD4680BC704700BFF0
:100FCC0000ED00E080B483B000AF03463960FB71E4
:100FDC0097F90730002B0ADB3B68DAB20C4997F91A
:100FEC0007301201D2B20B4483F800230AE03B68AD
:100FFC00DAB20849FB7903F00F03043B1201D2B2B9
:10100C000B441A7600BF0C37BD4680BC704700BF3E
:10101C0000E100E000ED00E080B489B000AFF860C2
:10102C00B9607A60FB6803F00703FB61FB69C3F1ED
:10103C000703042B28BF0423BB61FB690433062B75
:10104C0002D9FB69033B00E000237B614FF0FF32C8
:10105C00BB6902FA03F3DA43BB681A407B699A4016
:10106C004FF0FF317B6901FA03F3D9437B680B40E6
:10107C00134318462437BD4680BC704780B582B0F8
:10108C0000AF78607B68013BB3F1807F01D3012313
:10109C000FE00A4A7B68013B53600F214FF0FF3091
:1010AC00FFF790FF054B00229A60044B07221A6051
:1010BC00002318460837BD4680BD00BF10E000E095
:1010CC0080B582B000AF78607868FFF749FF00BF49
:1010DC000837BD4680BD80B586B000AF0346B96009
:1010EC007A60FB7300237B61FFF75EFF78617A689F
:1010FC00B9687869FFF790FF024697F90F301146EF
:10110C001846FFF75FFF00BF1837BD4680BD80B59E
:10111C0082B000AF78607868FFF7B0FF03461846DE
:10112C000837BD4680BD000080B48BB000AF78603E
:10113C00396000237B6200233B6269E101227B6AF8
:10114C0002FA03F3FB613B681B68FA691340BB614D
:10115C00BA69FB699A4240F058813B685B689A4ACD
:10116C0093425ED0984A934275D8984A934258D08D
:10117C00964A93426FD8964A934252D0944A9342DD
:10118C0069D8944A93424CD0924A934263D8924A7B
:10119C00934246D0904A93425DD8122B2AD8122BF8
:1011AC0059D801A252F823F02F1200080912000896
:1011BC001B1200085D12000863120008631200087D
:1011CC00631200086312000863120008631200081F
:1011DC00631200086312000863120008631200080F
:1011EC006312000863120008631200081112000851
:1011FC0025120008794A934213D02CE03B68DB6837
:10120C003B6229E03B68DB6804333B6224E03B68CB
:10121C00DB6808333B621FE03B68DB680C333B62E6
:10122C001AE03B689B68002B02D104233B6213E05D
:10123C003B689B68012B05D108233B627B68FA69EC
:10124C001A6109E008233B627B68FA695A6103E082
:10125C0000233B6200E000BFBB69FF2B01D87B6819
:10126C0001E07B6804337B61BB69FF2B02D87B6A8E
:10127C009B0002E07B6A083B9B003B617B691A6820
:10128C000F213B6901FA03F3DB431A40396A3B69CE
:10129C0001FA03F31A437B691A603B685B6803F03D
:1012AC008053002B00F0B1804D4B9B694C4A43F0AE
:1012BC00010393614A4B9B6903F00103BB60BB685C
:1012CC00484A7B6A9B08023352F82330FB607B6AE6
:1012DC0003F003039B000F2202FA03F3DB43FA68CB
:1012EC001340FB607B68404A934213D07B683F4AB3
:1012FC0093420DD07B683E4A934207D07B683D4AAF
:10130C00934201D1032306E0042304E0022302E00C
:10131C00012300E000237A6A02F00302920093405A
:10132C00FA681343FB602F497B6A9B080233FA6807
:10133C0041F823203B685B6803F48013002B06D034
:10134C002D4B9A682C49BB6913438B6006E02A4BE2
:10135C009A68BB69DB43284913408B603B685B6828
:10136C0003F40013002B06D0234BDA682249BB6927
:10137C001343CB6006E0204BDA68BB69DB431E49A4
:10138C001340CB603B685B6803F40033002B06D042
:10139C00194B5A681849BB6913434B6006E0164B4E
:1013AC005A68BB69DB43144913404B603B685B686C
:1013BC0003F48033002B21D00F4B1A680E49BB6904
:1013CC0013430B6021E000BF00003210000031100D
:1013DC00000022100000211000001210000011105B
:1013EC00001002400000014000080140000C0140C8
:1013FC000010014000140140000401400B4B1A681E
:10140C00BB69DB43094913400B607B6A01337B6288
:10141C003B681A687B6A22FA03F3002B7FF48EAECA
:10142C0000BF00BF2C37BD4680BC70470004014094
:10143C0080B483B000AF78600B467B8013467B7022
:10144C007B78002B03D07A887B681A6103E07B8859
:10145C001A047B681A6100BF0C37BD4680BC70470C
:10146C0080B586B000AF78607B68002B01D101237A
:10147C0072E27B681B6803F00103002B00F087808D
:10148C00924B5B6803F00C03042B0CD08F4B5B6806
:10149C0003F00C03082B12D18C4B5B6803F48033E4
:1014AC00B3F5803F0BD1894B1B6803F40033002B41
:1014BC006CD07B685B68002B68D101234CE27B68A5
:1014CC005B68B3F5803F06D1804B1B687F4A43F4C1
:1014DC00803313602EE07B685B68002B0CD17B4B58
:1014EC001B687A4A23F480331360784B1B68774A65
:1014FC0023F4802313601DE07B685B68B3F5A02F99
:10150C000CD1724B1B68714A43F4802313606F4BF0
:10151C001B686E4A43F4803313600BE06B4B1B6803
:10152C006A4A23F480331360684B1B68674A23F4C0
:10153C00802313607B685B68002B13D0FFF7E2FC01
:10154C00386108E0FFF7DEFC02463B69D31A642BD6
:10155C0001D9032300E25D4B1B6803F40033002B1D
:10156C00F0D014E0FFF7CEFC386108E0FFF7CAFCBE
:10157C0002463B69D31A642B01D90323ECE1534B8C
:10158C001B6803F40033002BF0D100E000BF7B6834
:10159C001B6803F00203002B63D04C4B5B6803F019
:1015AC000C03002B0BD0494B5B6803F00C03082B8E
:1015BC001CD1464B5B6803F48033002B16D1434B94
:1015CC001B6803F00203002B05D07B681B69012B01
:1015DC0001D00123C0E13D4B1B6823F0F8027B686E
:1015EC005B69DB00394913430B603AE07B681B698C
:1015FC00002B20D0364B01221A60FFF783FC386198
:10160C0008E0FFF77FFC02463B69D31A022B01D995
:10161C000323A1E12D4B1B6803F00203002BF0D038
:10162C002A4B1B6823F0F8027B685B69DB002749B7
:10163C0013430B6015E0264B00221A60FFF762FC87
:10164C00386108E0FFF75EFC02463B69D31A022BB7
:10165C0001D9032380E11D4B1B6803F00203002B0F
:10166C00F0D17B681B6803F00803002B3AD07B6831
:10167C009B69002B19D0174B01221A60FFF742FC13
:10168C00386108E0FFF73EFC02463B69D31A022B97
:10169C0001D9032360E10D4B5B6A03F00203002BBD
:1016AC00F0D0012000F0A6FA1CE00A4B00221A60D0
:1016BC00FFF728FC38610FE0FFF724FC02463B697A
:1016CC00D31A022B08D9032346E100BF00100240B5
:1016DC000000424280044242924B5B6A03F00203D8
:1016EC00002BE9D17B681B6803F00403002B00F08E
:1016FC00A6800023FB758B4BDB6903F08053002B1A
:10170C000DD1884BDB69874A43F08053D361854BFD
:10171C00DB6903F08053BB60BB680123FB75824B14
:10172C001B6803F48073002B18D17F4B1B687E4A17
:10173C0043F480731360FFF7E5FB386108E0FFF7B3
:10174C00E1FB02463B69D31A642B01D9032303E165
:10175C00754B1B6803F48073002BF0D07B68DB683F
:10176C00012B06D16F4B1B6A6E4A43F001031362C7
:10177C002DE07B68DB68002B0CD16A4B1B6A694A35
:10178C0023F001031362674B1B6A664A23F00403C0
:10179C0013621CE07B68DB68052B0CD1614B1B6A68
:1017AC00604A43F0040313625E4B1B6A5D4A43F0CC
:1017BC00010313620BE05B4B1B6A5A4A23F00103D3
:1017CC001362584B1B6A574A23F0040313627B685D
:1017DC00DB68002B15D0FFF795FB38610AE0FFF7AB
:1017EC0091FB02463B69D31A41F28832934201D9EC
:1017FC000323B1E04B4B1B6A03F00203002BEED02A
:10180C0014E0FFF77FFB38610AE0FFF77BFB024631
:10181C003B69D31A41F28832934201D903239BE0EE
:10182C00404B1B6A03F00203002BEED1FB7D012B16
:10183C0005D13C4BDB693B4A23F08053D3617B6879
:10184C00DB69002B00F08780364B5B6803F00C03E0
:10185C00082B61D07B68DB69022B46D1334B00220D
:10186C001A60FFF74FFB386108E0FFF74BFB0246AD
:10187C003B69D31A022B01D903236DE0294B1B685A
:10188C0003F00073002BF0D17B681B6AB3F5803F2B
:10189C0008D1244B5B6823F400327B689B68214998
:1018AC0013434B601F4B5B6823F474127B68196AFB
:1018BC007B685B6A0B431B4913434B601B4B012238
:1018CC001A60FFF71FFB386108E0FFF71BFB0246AD
:1018DC003B69D31A022B01D903233DE0114B1B6842
:1018EC0003F00073002BF0D035E0104B00221A608F
:1018FC00FFF708FB386108E0FFF704FB02463B6981
:10190C00D31A022B01D9032326E0064B1B6803F0E4
:10191C000073002BF0D11EE07B68DB69012B07D133
:10192C00012319E0001002400070004060004242A8
:10193C000B4B5B68FB60FB6803F480327B681B6AB3
:10194C009A4206D1FB6803F470127B685B6A9A4278
:10195C0001D0012300E0002318461837BD4680BD96
:10196C000010024080B584B000AF786039607B68AD
:10197C00002B01D10123D0E06A4B1B6803F0070355
:10198C003A689A4210D9674B1B6823F007026549E5
:10199C003B6813430B60634B1B6803F007033A6807
:1019AC009A4201D00123B8E07B681B6803F0020364
:1019BC00002B20D07B681B6803F00403002B05D0A0
:1019CC00594B5B68584A43F4E06353607B681B686F
:1019DC0003F00803002B05D0534B5B68524A43F4C9
:1019EC0060535360504B5B6823F0F0027B689B683C
:1019FC004D4913434B607B681B6803F00103002BBC
:101A0C0040D07B685B68012B07D1474B1B6803F404
:101A1C000033002B15D101237FE07B685B68022B20
:101A2C0007D1414B1B6803F00073002B09D1012334
:101A3C0073E03D4B1B6803F00203002B01D1012323
:101A4C006BE0394B5B6823F003027B685B683649BB
:101A5C0013434B60FFF756FAF8600AE0FFF752FAAF
:101A6C000246FB68D31A41F28832934201D9032310
:101A7C0053E02D4B5B6803F00C027B685B689B00AA
:101A8C009A42EBD1274B1B6803F007033A689A4242
:101A9C0010D2244B1B6823F0070222493B681343E6
:101AAC000B60204B1B6803F007033A689A4201D085
:101ABC00012332E07B681B6803F00403002B08D081
:101ACC00194B5B6823F4E0627B68DB6816491343AF
:101ADC004B607B681B6803F00803002B09D0124B8A
:101AEC005B6823F460527B681B69DB000E4913436F
:101AFC004B6000F021F802460B4B5B681B0903F0AE
:101B0C000F030A49CB5C22FA03F3094A1360094B11
:101B1C001B681846FFF7B4F9002318461037BD466A
:101B2C0080BD00BF0020024000100240F8250008D4
:101B3C00000000200400002080B487B000AF002318
:101B4C00FB600023BB6000237B6100237B600023D0
:101B5C003B611E4B5B68FB60FB6803F00C03042BC2
:101B6C0002D0082B03D027E0194B3B6127E0FB6820
:101B7C009B0C03F00F03174AD35C7B60FB6803F4E8
:101B8C008033002B10D0114B5B685B0C03F001030E
:101B9C00114AD35CBB607B680D4A03FB02F2BB6845
:101BAC00B2FBF3F37B6104E07B680C4A02FB03F3AA
:101BBC007B617B693B6102E0054B3B6100BF3B698C
:101BCC0018461C37BD4680BC704700BF0010024051
:101BDC0000127A00082600081826000800093D00AB
:101BEC0080B400AF024B1B681846BD4680BC7047E2
:101BFC000000002080B485B000AF78600A4B1B68F1
:101C0C000A4AA2FB03235B0A7A6802FB03F3FB601C
:101C1C0000BFFB685A1EFA60002BF9D100BF00BF51
:101C2C001437BD4680BC704700000020D34D6210B5
:101C3C00014B1868704700BF0C00002070B50026DF
:101C4C000C4D0D4C641BA410A64209D100F09CFC59
:101C5C0000260A4D0A4C641BA410A64205D170BD87
:101C6C0055F8043B98470136EEE755F8043B984786
:101C7C000136F2E7502600085026000850260008CE
:101C8C005426000803460244934200D1704703F8DF
:101C9C00011BF9E70EB46FF0004100B59CB01DAB11
:101CAC0002900690079104910848094953F8042BB7
:101CBC000591006802A9019300F068F80022029BCC
:101CCC001A701CB05DF804EB03B070470C000020D8
:101CDC000802FFFF2DE9F0478E6882469E420C46B3
:101CEC0090461F4638D88A8912F4906F32D02568F6
:101CFC0009690133A5EB010965694B4405EB450501
:101D0C0005EBD5756D109D4238BF1D46530531D579
:101D1C00294600F06FFB064650B90C234FF0FF30FC
:101D2C00CAF80030A38943F04003A381BDE8F087D3
:101D3C004A46216900F0CEFAA38923F4906343F05C
:101D4C008003A38126614E4426603E466561A5EB67
:101D5C000905A560BE4200D93E4632464146206880
:101D6C0000F0C6FAA36800209B1BA36023683344D1
:101D7C002360DBE72A4600F0B1FB06460028E1D1E0
:101D8C005046216900F0CEFAC7E700002DE9F04F6C
:101D9C0098468B8907461B060D4614469DB00ED5FA
:101DAC000B6963B9402100F025FB2860286120B93C
:101DBC000C233B604FF0FF30D1E040236B610023DC
:101DCC00099320238DF8293030234FF00109CDF8E9
:101DDC000C80DFF8A4818DF82A3023469A4613F83C
:101DEC00012B0AB1252AF9D1BAEB040B0BD05B46B7
:101DFC00224629463846FFF76DFF013000F0AA80D5
:101E0C00099A5A4409929AF80030002B00F0A280EB
:101E1C0000234FF0FF32CDE905230AF1010A0493A8
:101E2C0007938DF853301A935446052214F8011B6E
:101E3C00514800F041FA049AD8B9D00644BF202387
:101E4C008DF85330110744BF2B238DF853309AF87B
:101E5C0000302A2B15D0544600204FF00A0C079A5C
:101E6C00214611F8013B303B092B4ED9B0B10792FA
:101E7C0014E0A0EB080309FA03F31343A2460493FE
:101E8C00D2E7039B191D1B680391002BBBBF5B4260
:101E9C0042F0020207930793B8BF049223782E2BCB
:101EAC000CD163782A2B35D1039B02341A1D1B6885
:101EBC000392002BB8BF4FF0FF330593DFF8BCA0A3
:101ECC0003225046217800F0F7F940B14023A0EBF3
:101EDC000A0003FA00F0049B01340343049314F842
:101EEC00011B062226488DF8281000F0E5F9002881
:101EFC0038D0244B1BBB039B073323F00703083359
:101F0C000393099B3344099367E70C4601200CFBB0
:101F1C000232A5E700234FF00A0C19460134059351
:101F2C00204610F8012B303A092A03D9002BC5D0D2
:101F3C000591C3E7044601230CFB0121F0E703AB39
:101F4C0000932A463846104B04A9AFF30080421C7C
:101F5C000646D6D1AB895B063FF52CAF09981DB070
:101F6C00BDE8F08F03AB00932A463846064B04A914
:101F7C0000F07CF8EBE700BF1A26000820260008CA
:101F8C002426000800000000E11C00082DE9F047A1
:101F9C00164699468A680B6907469342B8BF1346A2
:101FAC00336091F843200C46DDF820800AB10133F0
:101FBC0033602368990642BF336802333360256867
:101FCC0015F0060506D104F1190AE36832689B1A6C
:101FDC00AB4228DC94F84320131E226818BF01235F
:101FEC0092062DD44946384604F14302C0470130CD
:101FFC0020D02368E56803F00603042B18BF0025E6
:10200C0032684FF00006A36808BFAD1A226908BFFA
:10201C0025EAE5759342C4BF9B1AED181A34B542F4
:10202C001AD1002008E00123524649463846C047E1
:10203C00013003D14FF0FF30BDE8F0870135C4E724
:10204C003020E11881F843005A1C94F845102244C2
:10205C00023382F84310C5E701232246494638462D
:10206C00C0470130E6D00136D9E700002DE9FF4723
:10207C000F7E9146782F80460C469A460C9D01F1B6
:10208C00430207D8622F0AD8002F00F0D980582FAE
:10209C0000F0A48004F1420584F842703AE0A7F104
:1020AC006303152BF6D801A151F823F01121000878
:1020BC0025210008A1200008A1200008A12000086B
:1020CC00A120000825210008A1200008A12000085B
:1020DC00A1200008A1200008332200085521000887
:1020EC0015220008A1200008A12000085522000894
:1020FC00A120000855210008A1200008A1200008FB
:10210C001D2200082B681A1D1B682A6004F1420569
:10211C0084F842300123A4E020682968060601F106
:10212C0004030AD50E682B60002E03DA2D237642A9
:10213C0084F843300A235E4819E00E6810F0400F13
:10214C002B6018BF36B2EFE72B682068191D296089
:10215C00010601D51E6802E04606FBD51E886F2FCE
:10216C000CBF08230A235248002184F843106568E9
:10217C00002DA8BF2168A560A4BF21F00401216037
:10218C000EB9002D4DD01546B6FBF3F103FB1167CC
:10219C00C75D05F8017D3746BB420E46F4D9082BC6
:1021AC000BD12368DE0708D5236961689942DEBF2D
:1021BC00302305F8013C05F1FF35521B22614B46DB
:1021CC0021464046CDF800A003AAFFF7DFFE013000
:1021DC004CD14FF0FF3004B0BDE8F087344881F8A3
:1021EC0045702968236851F8046B29601D0614D5C5
:1021FC00DF0744BF43F0200323601EB9236823F09C
:10220C00200323601023AFE7236843F020032360EF
:10221C007823284884F84530E3E7590648BFB6B21E
:10222C00E6E71546BBE72B682668181D6169286030
:10223C0035061B6801D5196002E07006FBD51980C4
:10224C00002315462361BAE72B6800211A1D2A606A
:10225C001D686268284600F02FF808B1401B6060CA
:10226C0063682361002384F84330A8E72A46494673
:10227C0040462369D0470130ABD023689B0713D469
:10228C00E068039B9842B8BF1846A4E70123324686
:10229C0049464046D04701309BD00135E36803994D
:1022AC005B1AAB42F2DCEBE7002504F11906F5E70B
:1022BC002B2600083C260008034610B5C9B2024480
:1022CC009342184601D1002003E0047801338C427C
:1022DC00F6D110BD0A44914200F1FF3300D1704792
:1022EC0010B511F8014B914203F8014FF9D110BD13
:1022FC00884210B501EB020402D98442234607D868
:10230C00431EA14208D011F8012B03F8012FF8E766
:10231C00014602448A4200D110BD13F8014D02F867
:10232C00014DF7E738B50546002940D051F8043C7B
:10233C000C1F002BB8BFE41800F010F91C4A1368EE
:10234C0033B9636014602846BDE8384000F00CB91E
:10235C00A34208D9206821188B4201BF19685B6819
:10236C0009182160EDE71A465B680BB1A342FAD954
:10237C0011685018A0420BD12068014450188342B8
:10238C001160E0D118685B68014411605360DAE7B2
:10239C0002D90C232B60D6E7206821188B4201BF91
:1023AC0019685B680918216063605460CBE738BD1D
:1023BC009400002070B50E4E0C463168054611B9DC
:1023CC0000F0BCF830602146284600F0B7F8431CFA
:1023DC000AD0C41C24F00304A04207D0211A2846BA
:1023EC0000F0ACF8013001D14FF0FF34204670BD45
:1023FC00980000202DE9F041CD1C25F0030508358F
:10240C000C2D38BF0C25002D074601DBA94205D940
:10241C000C2300263B603046BDE8F0812E4E00F0C8
:10242C009DF833681C4634BB29463846FFF7C2FF7B
:10243C00431C04464DD134682646002E40D12368F7
:10244C003146384604EB030800F078F880453AD161
:10245C00216803356D1A25F0030508350C2D38BF9E
:10246C000C2538462946FFF7A5FF01302BD02368F1
:10247C002B4423600EE02268521B1ED40B2A16D963
:10248C006119A342256018BF5960636808BF3160A9
:10249C0062514B60384604F10B0600F065F826F0EB
:1024AC000706231DF21AB6D09B1BA350B3E7626834
:1024BC00A3420CBF32605A60ECE723466468B2E773
:1024CC0034467668B9E70C2338463B6000F04CF88C
:1024DC00A1E72560DEE700BF940000202DE9F04164
:1024EC00804614460E4621B91146BDE8F041FFF76F
:1024FC0081BF2AB9FFF716FF25462846BDE8F081B3
:10250C0000F038F88442074602D8B4EB500F12D8CA
:10251C0021464046FFF76EFF05460028EDD0BC4231
:10252C002246314628BF3A46FFF7D4FE3146404694
:10253C00FFF7F8FEE1E73546DFE7000038B500238A
:10254C00054D044608462B60FEF7DAF8431C02D111
:10255C002B6803B1236038BD9C000020014800F0BB
:10256C0011B800BFA0000020014800F00CB800BF5B
:10257C00A000002051F8043C181F002BBCBF0B58C6
:10258C00C018704770477047F8B500BFF8BC08BC5E
:10259C009E467047F8B500BFF8BC08BC9E46704715
:1025AC00253032643A253032643A253032642E2597
:1025BC003032640050757368202A20746F20706C60
:1025CC0061790000302053746F70202D202320522D
:1025DC0065736574000000002A20706C6179202DF1
:1025EC002023205265736574000000000000000079
:1025FC000000000001020304060708090203040599
:10260C00060708090A0B0C0D0E0F10100102232DE2
:10261C00302B2000686C4C006566674546470030DF
:10262C00313233343536373839414243444546002C
:10263C00303132333435363738396162636465662C
:04264C00000000008A
:04265000310100084C
:042654000D0100086C
:102658000024F40010000000010000001000002019
:102668000000000000000000000000000000000062
:102678000000000000000000000000000000000052
:102688000000000000000000000000000000000042
:102698000000000000000000000000000000000032
:1026A8000000000000000000000000000000000022
:1026B8000000000000000000000000000000000012
:040000050800078563
:00000001FF
